:020000040800F2
:10000000F0FF0010513C0708959B060889ED000899
:10001000F13C0708F13C0708F13C0708000000002C
:10002000000000000000000000000000999B06088E
:100030009D9B060800000000A19B060821AA00085D
:10004000F13C0708F13C0708F13C0708F13C0708C0
:10005000F13C0708F13C070831C2000855C200080E
:1000600079C200089DC20008C1C20008E5BC0008B2
:10007000F9BC00080DBD000821BD000835BD000811
:1000800049BD00085DBD0008F13C0708F13C0708C8
:10009000F13C0708F13C0708F13C0708E5C20008FD
:1000A000F5D6000855D6000805D7000845D6000843
:1000B0007DD600088DD600089DD6000881B60008C0
:1000C00091CC000889B6000895CC0008F13C0708DF
:1000D000F13C07088561060885620608AD630608DD
:1000E00021C30008F13C0708B1D2060815D7000863
:1000F000CDD6000825D70008BDD6000871BD000880
:10010000F13C0708F13C0708ADD60008F13C0708B0
:10011000D5640608FD650608F13C0708F13C0708B0
:1001200085BD000899BD0008ADBD0008C1BD00082F
:10013000D5BD0008F13C0708F13C0708F13C070871
:10014000F13C0708F13C0708F13C0708A59B0608AD
:10015000E9BD0008FDBD000811BE000825670608BE
:1001600091B6000899CC0008F13C0708F13C07085B
:10017000F13C0708F13C0708F13C0708F13C07088F
:08018000F13C0708F13C0708FF
:1080000010B40C4B4FF0E02C1A68DCF8180019681B
:108010008A42F9D159688842F6D89C684FF47A713F
:1080200001FB04F31B1AB3FBF4F35DF8044B01FBF3
:1080300002307047981C0020074BD0F8EC105B68AA
:10804000D0F8F8205B1A9A42B8BFC0F8F830012384
:1080500080F8243100207047001000E0C44A2C2131
:1080600001FB00212DE9F041CB685B68B3F814C037
:108070001CF0010F40F081805FFA8CFE1EF0020FB1
:1080800049D0BFF35F8F91F82840012CE5B200F092
:10809000F6804400198BBFF35F8F2C2101FB002178
:1080A00091F82850022D00F017812C2101FB0021AE
:1080B00091F82850032D09D191F82A1031B12118D7
:1080C000114491F89050002D40F07081998889B248
:1080D00041F4806199802118114491F992E04FF0A8
:1080E0002C0C0CFB002C9CF828C00CF1010CF44566
:1080F0000FD121181144002481F8904091F891107B
:10810000002940F0E2802C2303FB0023002283F8A7
:108110002520BDE8F0811EF0040F6DD100EB400476
:1081200016191EF0400E96F992804FEA400400F0B6
:10813000E880B3F810C00F6B5FFA8CFC07F808C03A
:108140005FFA88F591F828C0691C49B286F8921048
:10815000CE1CB4458E4600F053814FF02C0C0CFB26
:10816000002C9CF82860B142B9D121180235114485
:108170006DB281F89250AE46B1E7B3F800C02CF46E
:10818000006C4FEA0C4C4FEA1C4CA3F800C01C8852
:10819000A4B244F480641C8000EB400C944491F839
:1081A0002A504FF0000E44008CF892E0002D54D07D
:1081B0009CF89050002D4CD021181144012481F8D6
:1081C00090402C2101FB002191F82810022904D1B4
:1081D000198889B241F4006119802C2101FB00212A
:1081E00091F8261041F0010119822C2303FB002293
:1081F00092F82830BDE8F08100EB4005154491F875
:108200002A604FF0010C440085F891C0002E7ED00A
:1082100095F89060002E7FD12C2101FB002191F870
:108220002910002900F0C580198889B241F4007135
:1082300019802118114491F892E00EF1010E4FFAC5
:108240008EFE81F892E0B3F800C01CF4807FFAD172
:1082500045E791F82710FF29AED02C2101FB002122
:1082600091F8265005F0FE051D8291F82730FF2B6E
:10827000BBD021181144FF2381F89230B5E791F863
:108280002A10440000293FF405AF00EB40011144DF
:1082900091F89060002E3FF4FDAE1E8826F48066B3
:1082A0003604360C1E80BFF35F8F81F8915091F930
:1082B00092E01D8B198889B241F400711980998868
:1082C00089B241F48061998009E7998821F440716D
:1082D0000904090C998016E791F82A1000293FF447
:1082E000E4AE2118114491F89050002D3FF4DDAE1A
:1082F00091F992E0198821F480610904090C198030
:108300004DE01FFA8CF52D0634D4C646E7E695F805
:108310009010002980D087E791F828600F6B022E1B
:108320001E8853D926F480663604360C1E801E8AB9
:1083300095F992C0F6B207F80C600F6B198889B2F4
:1083400041F4007119805FFA8CFC1E8A0CF1010166
:1083500049B2F6B27E5499880CF1020E89B24FFAF6
:108360008EFE41F4806185F892E099806BE700BF52
:10837000981C0020B8F1FF3F49D0CD6A15F808C01D
:108380005FFA8CFCA3F810C091F8281008F10105E1
:108390006DB2A94286F89250AE467FF4A0AE99889D
:1083A00021F480610904090C998098E691F992E022
:1083B000F5E7198889B241F48071198021181144B8
:1083C000012591F992E081F890503CE7B6B246F46D
:1083D00000761E801E8A95F992C0F6B207F80C60EE
:1083E0005FFA8CFC0F6B1E8A0CF1010149B20CF193
:1083F000030EF6B24FFA8EFE7E5485F892E022E725
:108400009E8826F480663604360C9E80A5E691F898
:10841000274086F892E0E4B21C8291F82A4024B901
:1084200091F8281000297FF4E0AE998821F480614A
:108430000904090C9980D8E610B404698269E468DB
:108440004168146000234024C2E902344469936304
:108450000C31C2E90433C2E90633C2E90833C2E988
:108460000A33C2E90C33516094B1C269E468936382
:108470004FF48030C2E90041C2E90233C2E904335B
:10848000C2E90633C2E90833C2E90A03C2E90C3380
:108490005DF8044B704700BFD0E9001300221A605A
:1084A000037D1F2B07D9203B202202FA03F343F060
:1084B0001803CB607047202202FA03F343F018033D
:1084C0008B6070471B4B016803F57D7C02E02C3309
:1084D00063452CD01A688A42F9D170B593F804E04C
:1084E000427996450BD02C33634505D01A688A42F1
:1084F000F4D02C336345F9D14FF0FF3070BD9E4668
:108500008468DEF80C50A5424FF0000208D001321A
:10851000032A0EF10C0EE6D0DEF80C50A542F6D17F
:10852000DEF81050C668B542F1D150B270BD4FF0C0
:10853000FF307047D06E0708002A4FEA014C30B573
:1085400003460ABFE6468E468C4600F1C00500246D
:1085500019689A6841EA0C0142EA0E029A60C3E97E
:1085600000140C33AB42F3D1D0F8C030C0F8C44093
:1085700043EA0E03C0F8C030C0F8C84030BD00BFA9
:10858000C3691969B3F80CC00A6830B49C6822F05A
:10859000010224680A60A28992B222EA0C02A28136
:1085A000027D00681F2A06D94568203A08249440B5
:1085B0002C4245D0FEE70568082494402C42F9D1AE
:1085C000202404FA02F28260264A1278002A35D06A
:1085D0001A7E012A39D0D3F8F4200132C3F8F420EE
:1085E000EFF31181502282F3128858685C6C0268A4
:1085F00022EA04029C6C2243C9B2026081F3118812
:10860000D3E90C401A6999681D6C096814605061BF
:10861000D3E90E40546090600024B3F8A800D56000
:108620004C62C86210680124204310601C7683F8F5
:10863000F1408A899B8913439BB28B8130BC704780
:10864000202404FA02F2C260BEE7002283F8F1207F
:10865000D3F8F8000A68013022F00102C3F8F800EC
:108660000A60EBE70400001010B40C4C6368002BA8
:1086700011DD002004F1080C0146DCF8A03003F104
:10868000C00259600C339342FBD1636801308342CE
:108690000CF5807CF1DC5DF8044B704704000010A1
:1086A000F0B5414C04EB401393F8243403B9F0BD0A
:1086B0003E4B93F8995093F89A2095424FEA401C0C
:1086C0000CD002EB420E03EBCE0E9EF89C60771EA0
:1086D000012F4FEA420E58D9032E51D004EB0C0063
:1086E000A0F80814EFF31182902383F3128890F816
:1086F0000A34B0F8081443EA41030021D2B29BB215
:1087000080F80A1482F311882178D0F820441A09DD
:1087100082EA13225A40C9B1D0F80C14D4F8A04010
:10872000D2431B019BB202F00F0201208840134389
:1087300004F1C0015A0013F4004F93B202D16268F1
:10874000024362600C34A142F4D1F0BDD0F80C14A5
:10875000D4F8A0401B0110319BB202F00F0201209F
:108760008840134304F1C0015A0013F4004F93B240
:1087700002D16268024362600C34A142F4D1F0BDC0
:10878000561C06F00306AE42A8D0964403EBCE0377
:10879000184490F8A9100029A0D004EB0C03012282
:1087A00083F80A249AE700BF04000010981C0020F8
:1087B000704700BF024B03EB401393F8250470474A
:1087C0000400001001690A6822F001028446642353
:1087D0000A6001E0013B36D00A6812F00102F9D1CB
:1087E000DCF80430BCF8500030B41883EFF311808B
:1087F000502383F31288DCF80440DCF844502368EB
:1088000023EA0503DCF84C502B43C0B2236080F30D
:108810001188DCF80830DCF81C001B680860DCF804
:1088200020004861DCF824004860DCF828008860FB
:10883000DCF82C00C860BCF86010D9628CF81820F5
:10884000012030BC70471846704700BF10B4037D4C
:1088500002681F2B09D95468203B202101FA03F339
:108860001C4215D15DF8044B70471468202101FAB1
:1088700003F31C42F6D00D494068002481F8FC4007
:1088800001685DF8044B21F00101016093607047BD
:1088900006494068002481F8FC4001685DF8044BFB
:1088A00021F001010160D360704700BF981C0020D7
:1088B000104BDA68D243C2F30222C2F10403012151
:1088C0004FF00F0CDBB201FA03F34CFA02F210B4D2
:1088D0000A40094CDBB213431B012218DBB282F8B9
:1088E0000033430900F01F00814044F823105DF875
:1088F000044B704700ED00E000E100E010B4037DA0
:1089000002681F2B09D95468203B202101FA03F388
:108910001C4215D15DF8044B70471468202101FA00
:1089200003F31C42F6D00D494068002481F8FD4055
:1089300001685DF8044B21F001010160936070470C
:1089400006494068002481F8FD4001685DF8044B49
:1089500021F001010160D360704700BF981C002026
:10896000122301480B80704788010020042301482E
:108970000B8070479C0100201C48D0F8103AD0F8BA
:10898000182A10B59B184FF01A040C8001D1184812
:1089900010BD174AD0F8140A02F1100411464FF026
:1089A000000E4FEA137CB3F1204F34BF0CF1300CB2
:1089B0000CF1370C81F802C081F803E002318C42DF
:1089C0004FEA0313EDD102F108040021030FB0F1C7
:1089D000204F34BF303337339374D1740232944212
:1089E0004FEA0010F2D1024810BD00BF0070FF1F17
:1089F000A0010020426A806A131A58425841704709
:108A000090F84F3830B53BB990F84D1890F84E3883
:108A10000124DAB2914200D830BDB0F8565804FAB9
:108A200003F22A43A0F856280133F2E703790246FD
:108A300013F0010005D0D369D068116A01385B1AC0
:108A40001840704710B50379DB07044601D40020B5
:108A500010BDFFF7EBFF0028F9D0236A6269D05CF4
:108A6000236AE2680133B3FBF2F102FB1133C0B2B7
:108A70002362EDE703799B070AD5436A8269D154E3
:108A8000436A02690133B3FBF2F102FB1133436223
:108A900070477047017170470379024613F0020076
:108AA00007D0536A1069916A01385B1A0340DBB240
:108AB000C01A704782B01D4B1D49002201920193DC
:108AC000019B04330193019B1A688B6803F00C032C
:108AD000042B02D0082B05D0164A174BC3F80021EF
:108AE00002B0704748684B68400203F03F0314D45B
:108AF0004A681049B1FBF3F3C2F3881203FB02F298
:108B00000B4B5B68C3F3014301335B00B2FBF3F231
:108B1000094BC3F8002102B070474968B2FBF3F279
:108B2000C1F3881303FB02F2EAE700BF50280040BC
:108B3000003802400024F400981C00204A484B49A9
:108B40004B4BDFF830C12DE9F04F4FF0010A4FF0E9
:108B500002094FF0040808271026202540244FF072
:108B6000800E30F8022B12F0010F03D01960A3F829
:108B700004A0083312F0020F03D01960A3F8049088
:108B8000083312F0040F03D01960A3F804800833EF
:108B900012F0080F02D019609F80083312F0100FF6
:108BA00002D019609E80083312F0200F02D01960A5
:108BB0009D80083312F0400F02D019609C8008336A
:108BC00012F0800F03D01960A3F804E0083312F408
:108BD000807F05D04FF4807B1960A3F804B0083380
:108BE00012F4007F05D04FF4007B1960A3F804B0A5
:108BF000083312F4806F05D04FF4806B1960A3F82E
:108C000004B0083312F4006F05D04FF4006B196004
:108C1000A3F804B0083312F4805F05D04FF4805BF2
:108C20001960A3F804B0083312F4005F05D04FF4C4
:108C3000005B1960A3F804B0083312F4804F05D02C
:108C40004FF4804B1960A3F804B00833D20B04D062
:108C50004FF4004219609A80083301F58061614544
:108C60007FF47FAFBDE8F08FC472070800000240B8
:108C70009C1D002000180240072809D8054B8C22B3
:108C800002FB0033B3F80805B0FA80F040097047E2
:108C90000020704704000010072806D8034B8C22E0
:108CA00002FB0033012283F80A25704704000010FC
:108CB00070B53F4C8C2303FB004393F8173503B981
:108CC00070BD3C4B93F899E093F89A2096450CD0F0
:108CD00002EB420C03EBCC0C9CF89C506E1E012E58
:108CE0004FEA420C44D9032D3DD08C2202FB0042B6
:108CF000A2F80815EFF31181902383F31288B2F8DC
:108D0000085592F80A3543EA45030025C9B29BB2DB
:108D100082F80A5581F311881A09217882EA132210
:108D20005A4001B1D2431B019BB294F86C19D4F89C
:108D3000685902F00F021A438C2303FB004431BB35
:108D40000121D4F89005A847D4F88C15B4F814552F
:108D50008A8AD4F888352A438A8258601A6842F091
:108D600001021A6070BD551C05F003057545BCD0A5
:108D7000944403EBCC03034493F8A9100029B4D026
:108D80008C2303FB0043012283F80A25ADE7D4F8C6
:108D90001035D4F88C155B79086903F0FC0318448E
:108DA0000421A847D4F88C358000988170BD00BF9D
:108DB00004000010981C002010B584464FEA810E74
:108DC000102312F4004F14BF0E2407245200013B5D
:108DD000CCF8004092B2F444F3D100EB81128C0144
:108DE000035142F82130122010BD00BF10B5844657
:108DF0004FEA810E0424130B03EB430318331201D3
:108E0000013CCCF8003092B2F444F4D100EB0113F1
:108E10000A01845043F82140062010BD704700BF6E
:108E2000704700BF034B00EB400003EBC00393F817
:108E30008109704704000010064B93F8302A8242E3
:108E400083BF00EB400003EBC003D3F8840900208C
:108E5000704700BF040000102AE700BF072808D8A9
:108E6000044B03EB401393F8242412B1012283F83E
:108E70000A24704704000010072808D8054B03EBAC
:108E80004013B3F80804B0FA80F04009704700209E
:108E9000704700BF04000010054B93F8302A82424F
:108EA00086BF03EB4013D3F814040020704700BFC3
:108EB000040000101D4B93F8342AAAB3D3F870199C
:108EC00009B100200860012A2ED0D3F8881909B111
:108ED00000200860022A27D0D3F8A01909B1002089
:108EE0000860032A20D0D3F8B81909B1002008601F
:108EF000042A19D0D3F8D01909B100200860052A36
:108F000012D0D3F8E81909B100200860062A0BD066
:108F1000D3F8001A09B100200860072A04D0D3F85A
:108F2000183A0BB100221A60704700BF040000100D
:108F30001D4B93F8342AAAB3D3F8701909B1002055
:108F40000860012A2ED0D3F8881909B100200860E2
:108F5000022A27D0D3F8A01909B100200860032AFB
:108F600020D0D3F8B81909B100200860042A19D01C
:108F7000D3F8D01909B100200860052A12D0D3F81F
:108F8000E81909B100200860062A0BD0D3F8001AAE
:108F900009B100200860072A04D0D3F8183A0BB1B1
:108FA00000221A60704700BF04000010B84B93F80D
:108FB0003230002B40F06A81B64B93F8342A002AF5
:108FC00000F0648193F8801970B400294FD1D3F870
:108FD00070190020012A086047D993F898190029D0
:108FE0006BD1D3F888190020022A08603DD993F884
:108FF000B019002940F0D280D3F8A0190020032A2C
:10900000086032D993F8C819002940F0EF80D3F8EE
:10901000B8190020042A086027D993F8E01900291C
:1090200040F00C81D3F8D0190020052A08601CD923
:1090300093F8F819002940F03381D3F8E81900209B
:10904000062A086011D993F8101A00295BD1D3F8C9
:10905000001A0020072A086007D993F8282A002A56
:1090600077D1D3F8183A00221A6070BC7047D3F851
:109070007409810AA1F580115229A8D8864C21448F
:1090800091F800140D29A2D8EFF31184502282F335
:109090001288824D466A828A4FF02C0C0CFB0151DB
:1090A00092B2013642F00102C1F82C64E4B282822D
:1090B00084F3118893F8342A89E7D3F88C09810A5C
:1090C000A1F5801152298CD8734C214491F80014D9
:1090D0000D2986D8EFF31184502282F312886F4D48
:1090E000466A828A4FF02C0C0CFB015192B2013679
:1090F00042F00102C1F82C64E4B2828284F3118848
:1091000093F8342A6DE7D3F8040A810AA1F5801197
:1091100052299CD8604C214491F800140D2996D80E
:10912000EFF31184502282F312885C4D466A828AE2
:109130004FF02C0C0CFB015192B2013642F00102AF
:10914000C1F82C64E4B2828284F3118893F8342A43
:109150007DE7D3F81C1A8A0AA2F58012522A80D819
:109160004D48024492F800040D283FF67AAFEFF321
:109170001184502282F31288484D4E6A8A8A4FF039
:109180002C0C0CFB005092B2013642F00102C0F8E8
:109190002C64E4B28A8284F3118862E7D3F8A409CC
:1091A000810AA1F5801152293FF626AF3A4C21449D
:1091B00091F800640D2E3FF61FAFEFF3118150229E
:1091C00082F31288354C456A828A4FF02C0C0CFBD6
:1091D000064492B2013542F00102C4F82C54C9B2DF
:1091E000828281F3118893F8342A05E7D3F8BC0909
:1091F000810AA1F5801152293FF609AF264C21447E
:1092000091F800140D293FF602AFEFF311845022BC
:1092100082F31288214D466A828A4FF02C0C0CFB97
:10922000015192B2013642F00102C1F82C64E4B25D
:10923000828284F3118893F8342AE8E6D3F8D409BB
:10924000810AA1F5801152293FF6ECAE124C21445F
:1092500091F800140D293FF6E5AEEFF3118450228A
:1092600082F312880D4D466A828A4FF02C0C0CFB5B
:10927000015192B2013642F00102C1F82C64E4B20D
:10928000828284F3118893F8342ACBE6704700BFBA
:109290008801002004000010D06E0708981C0020F0
:1092A000D3F8EC09810AA1F5801152293FF6C5AE29
:1092B0000F4C214491F800640D2E3FF6BEAEEFF343
:1092C0001181502282F312880A4C456A828A4FF03B
:1092D0002C0C0CFB064492B2013542F00102C4F89A
:1092E0002C54C9B2828281F3118893F8342AA4E6FF
:1092F000D06E0708981C002000EE100AB8EE400A55
:10930000704700BFBCEEC00A10EE103A98B270472A
:10931000012380F829300020704700BF08B50346BC
:10932000426AC06B996B02445A6201B188470020BF
:1093300008BD00BF036B1B681B6A5B685B78024655
:1093400013F0010008BF82F829007047F0B5224CE5
:10935000224A234B95B0054604F13C00CDE90002BA
:10936000049304F140000023CDE90503CDE90E3359
:109370001C4A09920B9304F1340210931393119336
:109380002B6B95F828700A921868012302228DF839
:109390000C3007938DF820308DF834308DF848303C
:1093A0003B1D02920E460C9368F028FA97B1330EDB
:1093B00084F835303634320C330A22706370A6706C
:1093C000286B69465BF068FD2B6B186868F016FA2D
:1093D00015B0F0BD3534EEE78801002004230020ED
:1093E000359300081193000810B5044694B050223C
:1093F000064968466DF0D8FA206B69465BF04CFD73
:10940000236B186868F0FAF914B010BD24730708CC
:1094100082634162704700BF2DE9F0410446006B52
:1094200000681E460F46904668F0E8F994F8283028
:10943000606A002B3ED0284D030E85F8453005228A
:1094400005F146039870EA67020C000A58701A701A
:109450003B68C5F888300020D8F80030C5F8903057
:10946000012EE363C5F8A00029D0022E20D1D8F840
:109470000420C5F89800796885F89400C5F89C1018
:1094800013441649C5F8A4200120E36385F8A80019
:10949000C5F8AC10124B94F82920206BA3F11401ED
:1094A000002A08BF19465BF0F7FCA36B7BB1E06BA9
:1094B000BDE8F0810B4B0422A3F14505C2E7074B41
:1094C00085F89460C5E92630C5F8A400E2E7236B6F
:1094D000186868F093F9EAE7880100201D930008F6
:1094E000E8010020CD010020704700BF00B583B027
:1094F00041620192049A0093826301236A4601A9A2
:10950000FFF78AFF03B05DF804FB00BF043070472B
:1095100010B4084CD4F8700604F2746C04EB801498
:109520000CEB8010D4F87446A469A4465DF8044B93
:10953000604700BF981C0020064BD3F8702603F24A
:10954000746003EB821300EB8210D3F87436DB698E
:10955000184700BF981C002004307047036B1B683D
:109560001B6A5B689B78024613F0010008BF82F813
:109570002900704782634162704700BF012380F871
:1095800029300020704700BF08B50346426AC06B0F
:10959000996B02445A6201B18847002008BD00BFA0
:1095A000704700BF043070470D4B93F8F826D3F88E
:1095B000F4160244D2B283F8F82693F8F826014450
:1095C0001206C3F8F41605D593F8F82682F0800247
:1095D00083F8F826034B012283F8C420704700BFAC
:1095E000981C0020880100202DE9F047154FD7F87E
:1095F000FC56ED0A20D00026B14607F5E86874193C
:10960000D7F800371048D3F828A0C7F8389704EBEC
:10961000D474641010234246E102D0470F280BDDBA
:109620000A4B03F1100153F8042B013207D18B428E
:10963000F9D12546B542E2DCE802BDE8F087661CB8
:10964000F8E700BF981C002098230020D8230020B2
:10965000194B1968D3F850278A1A322A05DCD3F837
:1096600064278A1A002A0FDC704793F85427D3F82E
:10967000581702F0010219B108688988B2B901834C
:109680000022C3F864277047D3F8582782B11068C6
:10969000928810B444693231224218BF42835DF887
:1096A000044B08BF0283C3F8641770474183E7E7A0
:1096B0003231C3F864177047981C0020064AD2F86C
:1096C00058373BB192F854179A881B68C90754BFA2
:1096D0001A835A8300207047981C00204FF40070B2
:1096E000034B1060D3F870370B600020704700BF49
:1096F000981C00200020704701207047012070470F
:109700000020704710B41C6994420CD394460A465A
:1097100061448C42996938BFA4EB0C0261445DF846
:10972000044B6DF041B95DF8044B704730B585B01E
:1097300068465FF039FF0F480F4AD0F8FC10009BD5
:109740000E4D41F08071C0F8FC10002400F1C840BB
:10975000C2F8B05FA0F5650054601168084CA0F62F
:109760007D60A0FB030341F001019B0CA36011602D
:1097700005B030BD00ED00E0001000E055CEACC5F6
:10978000981C00202DE9F84F01307E4C7E4D01F1F0
:10979000FF385FFA80FB1026012765F037FB4FF496
:1097A000FA794FF0E0214FF47A7C6B68C3F3080339
:1097B000002B40F0C080EFF31183002B40F0BB8002
:1097C0002368886922689342FAD162689042F7D888
:1097D000A2680CFB02FEAEEB000EBEFBF2FE0CFB21
:1097E00003EE6B68C3F30803002B40F08680EFF3B1
:1097F0001183002B40F0818023688869226893429E
:10980000FAD162689042F7D8D4F808A00CFB0AF2AB
:10981000121AB2FBFAF20CFB0323A3EB0E03B3F50F
:109820007A7FDED3B9F10109BFD158464FF47A7976
:1098300065F0A0FF4FF0E021CC466B68C3F308034E
:10984000002B40F08B80EFF31183002B40F08680DB
:109850002368886922689342FAD162689042F7D8F7
:10986000A2680CFB02FEAEEB000EBEFBF2FE0CFB90
:1098700003EE6B68C3F308030BBBEFF31183F3B97B
:109880002368886922689342FAD162689042F7D8C7
:10989000D4F808A00CFB0AF2121AB2FBFAF20CFB85
:1098A0000323A3EB0E03B3F57A7FE2D3B9F10109E9
:1098B000C3D1B8F10108BFF470AFBDE8F88FEFF382
:1098C000118386F31288D1F818A00A69D20344BF25
:1098D000C4F8A077D1F818A02068D4F8A027DBB28C
:1098E00083F311880244A0680CFB00F3A3EB0A0386
:1098F000B3FBF0F30CFB0233D3E7EFF3118386F3F2
:109900001288D1F818A00A69D20344BFC4F8A0771E
:10991000D1F818A02068D4F8A027DBB283F311880F
:109920000244A0680CFB00F3A3EB0A03B3FBF0F3C3
:109930000CFB023371E7EFF3118286F3128888691A
:109940000B69DB0344BFC4F8A07788692368D4F8A7
:10995000A0E7D2B282F31188734439E7EFF31182A2
:1099600086F3128888690B69DB0344BFC4F8A077CB
:1099700088692368D4F8A0E7D2B282F311887344CF
:109980006EE700BF981C002000ED00E02DE9F041DB
:109990001D4CDFF87C801D4F82B004F54075012618
:1099A00002E00834A54224D094F90630002BF8D107
:1099B000206800F13F4303F57E0308EB932393F8FF
:1099C000A4345A09032A03F01F0306FA03F317D03D
:1099D000042A11D0022A02D17A6C13437B6400233B
:1099E000A1881A46CDE90036083467F07FFCA5420D
:1099F000DAD102B0BDE8F0813A6B13433B63EEE786
:109A00003A6C13433B64EAE79C1D00200038024097
:109A1000D06E070809494B6C10B5094C43F48043DC
:109A20004B644022002104F2A4706DF015F84FF051
:109A3000FF33C4F8E437C4F8E73710BD00380240FC
:109A4000981C00202DE9F0411348144D4FF41A7270
:109A500000216DF001F84FF00008A5F2AC4705F6C3
:109A6000880440F2222655F82810002354F83320A9
:109A700091420BD001330E2BF8D1002008F10708DA
:109A800064F064FDB045EED1BDE8F08107EBC3039F
:109A900093F8380DF2E700BF9C2000207C73070884
:109AA0002DE9F843038AB0F80C801FFA88F818EA09
:109AB000030829D005460E464FF00047B8FA88F350
:109AC00027FA03F2D24391B21B3B298208EA02082B
:109AD000042B16D8DFE803F04134271A0300B36AD9
:109AE000002B47D003F1FF3900231FFA89F9B36235
:109AF000746A34B123682046494698476468002C4C
:109B0000F8D1B8F1000FD9D1BDE8F883706800280A
:109B1000F7D00368002BF4D0696B89B29847B8F18D
:109B2000000FCBD1F0E7B0680028EAD00368002B23
:109B3000E7D0A96B89B29847B8F1000FBED1E3E72F
:109B4000F0680028DDD00368002BDAD0E96B89B219
:109B50009847B8F1000FB1D1D6E730690028D0D0CE
:109B60000368002BCDD0296C89B29847B8F1000F5B
:109B7000A4D1C9E7EB6A1FFA83F9B9E770B50B4CBA
:109B800005460726013E00D170BD94F900001BF088
:109B90004FFB031E08DBEA1861789171A178E95444
:109BA000052BDCBFE37813730434EBE7747C070800
:109BB00010B5274B93F8992093F89A309A4242D1E6
:109BC000244A92F8F80AF8B192F86C4902F6382360
:109BD00000EB4000D2F8382A03EBC000B4B140F2E9
:109BE0000D3C00E01A6899689C894C600C6844F050
:109BF00001040C60A2F848C09189183389B241F47D
:109C0000807183429181EDD110BD1A68118821F0D5
:109C1000800109041833090C118033F8141CD16237
:109C2000118889B241F0800111805462B2F80CC0F1
:109C300033F8041C41EA0C0189B28342918123F874
:109C4000044CE2D110BD68F027FF0028B8D110BD48
:109C5000981C00200400001010B504466BF082FB35
:109C600081B22046BDE81040FEF71ABD10B504468B
:109C70006BF078FB81B22046BDE81040FFF718B8C2
:109C800038B50B4D00EB400005F5176303EBC0033F
:109C900093ED027AD3ED037AE7EE007AC40025440F
:109CA000B0EE670A6BF05EFBD5F87039186038BD0E
:109CB000040000100A4608B5054920B905485FF0C0
:109CC000FDFE034808BD04485FF0F8FE004808BDEB
:109CD000842400201C1608084416080810B5044CFB
:109CE00004480A4621465FF0E9FE204610BD00BF49
:109CF000842400206C16080810B5044C04480A4659
:109D000021465FF0DBFE204610BD00BF842400200A
:109D10008016080810B5044C04480A4621465FF036
:109D2000CDFE204610BD00BF842400208C160808FC
:109D3000F8B5A0F668042379DB0725D5657994F892
:109D40004C3805F001073D46FBB1D4F848341A6899
:109D5000D36A5B08536294F8503823B1B4F85A3888
:109D60000133A4F85A38606C85F0010164F0CEF834
:109D7000012384F84F38002384F84D3884F84E3896
:109D8000A4F8563884F84C38F8BD94F84F68012E82
:109D900004BF94F84D3884F84E382046FEF730FE64
:109DA0004EB9012384F84F3887EA0301606CBDE89F
:109DB000F84064F0ABB8002384F84F383946F5E733
:109DC00038B5A0F668040022606C344D03685A620E
:109DD000A1F12903302B31D895F8EB3895F8EC1820
:109DE0000133DBB2012B85F8EB3809D9B4F85638CA
:109DF00085F8EB285B08A4F856384B1C85F8EC383E
:109E000095F8EC280023082AA4F8583815D185F8CD
:109E1000EC38B5F8EE3801339BB2032BA5F8EE38D9
:109E200008D92379DB0705D5E36A94F8560843B3CC
:109E3000216B98470023A4F8563838BD5B396C294C
:109E40000CD8B4F8563885F8EB285B0843F080034B
:109E5000A4F8563895F8EC380133CFE794F8513828
:109E6000002BCDD1012185F8EB38A5F8EE38802301
:109E700084F85118A4F8563885F8EC1864F046F8C0
:109E8000BEE7E3696269D054E369E2680133B3FB7A
:109E9000F2F102FB1133E361CCE700BF981C002014
:109EA000C069002836D003681A6A127B2ABBD3E93E
:109EB00004125B68496872B110B4546800220A60E9
:109EC00022609A885DF8044B22F003021204120CFF
:109ED0009A805BF073BC1A891206FCD41A89D207E7
:109EE00009D400220A609A8822F002021204120C9D
:109EF0009A805BF063BC9A89F0E78268002AD6D02A
:109F0000116892880A83D3E904125B684968002AC1
:109F1000D2D1E0E7704700BFC06900B9704701685F
:109F200030B4D1E904424B6864687AB155680022C4
:109F300022602A609A8822F003021204120C9A808E
:109F40000B6A1B7BA3B930BC5BF038BC1A891506C1
:109F5000FCD41A89D20714D4002222609A8822F0F5
:109F600002021204120C9A800B6A1B7B002BEAD0AF
:109F70008368002BE7D01A689B88138330BC5BF0A2
:109F80001DBC9A89E5E700BF38B590F83430012B45
:109F9000044608D090F8290008B9012038BD0023F4
:109FA00084F8293038BD006B03681A7B92B994F8A5
:109FB0002930002BF1D00A4D0A49022305F50F6222
:109FC0005AF024FF95F8F138D84300F0010003F06F
:109FD0000103E5E71B6A002BE9D0002038BD00BF74
:109FE000981C00205002002038B5044694F8343004
:109FF000012B09D094F8293013B1002384F82930BB
:10A00000012038BD1B6A23B1206B03681A7B002A2C
:10A01000F8D194F82930002BF2D0084D08490223DA
:10A0200005F50F625AF0F2FE95F8F13803F00102DF
:10A03000DB0784F82920E3D5D8E700BF981C00206F
:10A040005002002010B590F83430012B044604D0A3
:10A050000120002384F8293010BD006B03681A7BAF
:10A060003AB967F0CFFBC24300F0010302F00100F0
:10A07000F0E71B6A002BF4D0002010BD38B5124D5C
:10A08000044694F83430012B06D0002384F829309C
:10A090000023E362012038BD206B03681A7B72B98C
:10A0A00067F0B0FB00F0010384F82930C307EFD557
:10A0B0002B68E26A9B1A002BE3DB002038BD1B6A89
:10A0C000002BEDD0F4E700BF981C002010B5FF2254
:10A0D000044690F83410006B68F0CEFF104B1B68FC
:10A0E0000233E3622046FFF7C9FF94F83430012BB6
:10A0F00000D010BD0022206BA02168F093FF94F8DF
:10A10000202094F83430920042F01002012BD2B299
:10A11000EFD1206BB021BDE8104068F083BF00BFD5
:10A12000981C002038B504460D46FFF7A7FF94F8A9
:10A130003410206B062268F09FFF0121E38884F829
:10A140002910B5FBF3F394F83410206BD82268F093
:10A15000B5FF024B1B680F33E36238BD981C00202B
:10A16000838853B32DE9F041DFF850800446002680
:10A170000127E388258A204603FB05F5FFF77EFFCC
:10A1800094F83410206B062268F076FF06FB05F584
:10A19000E38894F83410B5FBF3F3D822206B84F8ED
:10A1A000297068F08BFFD8F80030A28801360F3391
:10A1B000B242E362DDD8BDE8F0817047981C002010
:10A1C00070B50F4D95F8F23803B970BD0446C388D9
:10A1D000D5F8F468B6FBF3F60A4BC3F8CC60FFF78A
:10A1E0004DFF3346102294F83410206B68F066FF60
:10A1F0002B680022023385F8F228E36270BD00BFAD
:10A20000981C0020880100202DE9F04F5A4EB0F82C
:10A2100006C0DFF86CA1B1FBFCF9984696F8F2385D
:10A2200099B004460D461746002B42D1DAF8CC30DF
:10A23000994520D02046FFF721FF18B9002019B01A
:10A24000BDE8F08F4FF0FF33206BCAF8CC3094F8A4
:10A2500034104B46132268F031FF33680233E36257
:10A260002046FFF70BFF0028E8D0B4F806C0CAF874
:10A27000CC90B5FBFCF90CFB1951ACEB010C94F83C
:10A280003430C44534BF1FFA8CF51FFA88F5012B12
:10A290002AD0336802332046E362FFF7EFFE00283E
:10A2A000CCD094F83430012B58D0284619B0BDE8F2
:10A2B000F08FD6F8F438B3FBFCFBCAF8CCB0FFF74C
:10A2C000DDFE206B94F834105B46102268F0F6FE39
:10A2D000002386F8F23833680233E3622046FFF742
:10A2E000CDFE0028AAD0ADE702AA04928DF81C305A
:10A2F00001AA8DF844308DF858300023CDE90D3394
:10A30000CDE91233CDE914330F970592276B8DF801
:10A310000A308DF80F300A938DF830301793174AB2
:10A320008DF80E10032308928DF80C3003AA0693C3
:10A33000090A96F8F8388DF80D1009928DF8083052
:10A340000422C023384604A90B9210958DF80930D9
:10A350005AF0A2FD386867F051FA9AE7206B67F06F
:10A3600051FAC0F30113023B012B9ED82046FFF7A0
:10A37000ADFE28469AE700BF981C00205D950008B6
:10A38000880100202DE9F84F414FD0F83090414D21
:10A3900097F8F83885F870310446D9F800008A46F5
:10A3A000904667F02BFA97F8F238002B3FD0D7F899
:10A3B000FC68E288B6FBF2F302FB136385F87631A2
:10A3C0001B0A85F8753105F1D00BDAF80030C5F8B5
:10A3D0007C31D8F80030C5F88431594600232E4A24
:10A3E000C5F88C3148465BF0B9F8012387F8F2389C
:10A3F000D8F80030E1881E44B6FBF1FA01FB1A6A76
:10A40000C7F8FC68BAF1000F21D0244AC5F88C21A6
:10A4100094F829200AB90BF1140BE3635946484616
:10A420005AF03AFDA36B5BB3E06BBDE8F88F666A48
:10A43000E288B6FBF2F302FB136385F87A311B0A5C
:10A44000C7F8F46885F8793105F5907BBDE7144AC3
:10A45000D7F8F438B3FBF1F3190CC5F8CC3085F814
:10A46000A5115BBAA2F12C014846A5F8A6315BF014
:10A4700075F8D8F8003087F8F2A8C7F8F468C7E78D
:10A48000236B186867F0BAF9E06BBDE8F88F00BF7E
:10A49000981C0020880100200403002089950008F2
:10A4A0003003002033B910B51C46836B2046984713
:10A4B000204610BD66E700BF00B583B0416201923F
:10A4C000049A826301A96A460093FFF75BFF03B019
:10A4D0005DF804FB2DE9F843DDF820800F461546B2
:10A4E0000021202204461E466CF0B6FAB8F1000F97
:10A4F0000CD0D8F80030E3811B0C2382D8F804304C
:10A50000B8F80A20E3821B0C62822383384668F085
:10A51000B7FEEB0619D4431EB8B107EB000C01E0FF
:10A52000013B12D31CF801EDBEF12E0FF8D1C01A79
:10A53000421E032AA8BF0322082B03F10109A8BF6A
:10A5400008239046B9441A4606E008280246B94650
:10A55000A8BF08224FF000084FF02033394623608F
:10A56000636020466CF020FA04F10800154B23814B
:10A570004246494683706CF017FA611EE21D11F8DD
:10A5800001CFACF16103192B9CBFACF1200C81F819
:10A5900000C09142F3D104F10A0011F8013FA3F188
:10A5A0006102192A9CBF203B0B708142F5D1182310
:10A5B0002373330CA382E572099B6683E361BDE8D4
:10A5C000F88300BF202020002DE9F04FDFF84CB4C5
:10A5D000DBF8000085B0CBF85007002B60D01344A7
:10A5E0000C46174601F5FE7A99461FE0002F64D00D
:10A5F000DBF87C37BB4200F0C680DBF87837BB4223
:10A6000000F0F880DBF88037DBF88417BB424BD8CA
:10A61000B94200F27081791A204663F0C7F9013718
:10A620004F4504F500740AF5007A39D0DBF8883715
:10A63000BB42DBD8DBF89857FB1A296BDA080232E9
:10A640008A4203F0070602D3AB6B9A420BD9294624
:10A650001046029263F07AF9029A0546002800F04B
:10A660006A81CBF898072B79002B40F01E81D5F832
:10A670002880B8F1000F00F057812B6BD21AEB68DD
:10A6800006EBC20203EB422220462B464FF4007138
:10A690000137C0474F4504F500740AF5007AC5D16B
:10A6A000002005B0BDE8F08FB942B4D94FF4007274
:10A6B000002120466CF0D0F9B1E74FF40072394622
:10A6C00020466CF0C9F9802384F8BE310C2384F84D
:10A6D000C231DBF87817C54ADBF87037C4F8C61109
:10A6E0009142C4F8CA3100F30B81C14AC14D82FBCB
:10A6F000010285FB01050A44C817C0EB6212C0EBDA
:10A700002530BD4D84F8C10185FB0265C2EB821680
:10A710008010891B013120F03F0015440843D117F8
:10A72000C1EBE5110A4484F8BF21B04A84F8C001A6
:10A73000013B934200F3F080AD4AAE4882FB031226
:10A7400080FB03101A44D917C1EB6212C1EB203110
:10A75000A94884F8C51180FB0250C2EB821589100C
:10A760005B1B013321F03F0110441943D317C3EBA6
:10A77000E0131A4484F8C41184F8C3214AF655231F
:10A78000A4F8FE314BE74FF0FF3384F8EC3184F846
:10A79000ED3184F8EE3184F8EF3152232370637089
:10A7A0006123A37084F8E7314123E37084F8E63134
:10A7B0007223002584F8E43184F8E531DBF8903722
:10A7C000C4F8E8314FF4F0722946201D6CF044F9CA
:10A7D000552384F8FE316FF05503C4F8F051C4F8E6
:10A7E000F451C4F8F85184F8FC5184F8FD5184F810
:10A7F000FF3114E74FF40072002120466CF02CF971
:10A800007E4B03CB45F6EB0323809023C4F807105F
:10A81000A37002220821F823C4F803006173227494
:10A820006375DBF870372273A27384F82C20DBF891
:10A8300078279B1A2362DBF88027DBF884379B1A82
:10A8400063620023E372E3736377A377E37784F8AB
:10A850002D3084F82E3084F82F3084F83130684B56
:10A86000A361684BC4F842303E232377012384F868
:10A870003030654A802384F8403084F846104AF628
:10A880005521A4F8FE1103CA604BC4F84700C4F870
:10A890004B1003CB1388A4F84F309378C4F85200C0
:10A8A000C4F8561084F85130B9E64FF40072002114
:10A8B00020466CF0D1F8002E44D12B6C04F1200816
:10A8C000002B7BD02B6B52491122CDE9006620462C
:10A8D000FFF700FE2B6C1A6C002A7ED01B6B4D49D3
:10A8E000CDE9006640461122FFF7F4FD04F140086F
:10A8F0004FF4E0736DE0F91A204663F057F88EE6E6
:10A90000FF2284F8C1214FF6FF72A4F8BF21374A15
:10A91000013B93427FF710AFFF2384F8C5314FF618
:10A92000FF73A4F8C33129E741464FF40072204673
:10A930006CF092F873E6384A231F43F8042F9A45C7
:10A94000FBD16CE6D5E910253301002A43D0023B48
:10A95000002D3FF464AE013BAD6CF9D1A0464FF43D
:10A960000073002D3FF45BAECDE9027A08EB0306DD
:10A97000A24608E00024CDE900C4FFF7ABFDAD6CB2
:10A98000BDB1B04515D02C7929682B6B404605F137
:10A990001C0C112208F12008002CEBD16A792C69DB
:10A9A00042F02102CDE900C4FFF794FDAD6C002D0B
:10A9B000E7D15446029FDDF80CA030E6CDE90066F1
:10A9C0003346DBF8741708222046FFF783FD4FF467
:10A9D000F0736D6CC5E7013BBAE7CDE900660D4940
:10A9E000334640461122FFF775FD7FE7FF03FB006A
:10A9F000832008829755454181808080A4160808ED
:10AA00003F00FF0029940E0DB0160808BC16080878
:10AA10009C160808A0160808DEADBEEF981C0020A2
:10AA200010B4EFF31182102383F31288084B1968D6
:10AA30004FF0E02001311960816959600024C3F8AA
:10AA4000A0470369D3B283F311885DF8044B7047C4
:10AA5000981C002010B4EFF31181102383F31288A7
:10AA60004FF0E022C9B29469136913F4803F0C4B94
:10AA70001EBF0120C3F8A00794691868D3F8A02767
:10AA800081F31188996802444FF47A7000FB01F356
:10AA90001B1B5DF8044BB3FBF1F300FB0230704766
:10AAA000981C0020234B5B68C3F3080310B4DBB988
:10AAB000EFF31183C3B9204B4FF0E02C1A68DCF898
:10AAC000180019688A42F9D159688842F6D89C68FA
:10AAD0004FF47A7101FB04F3181AB0FBF4F05DF83F
:10AAE000044B01FB02007047EFF31181102383F345
:10AAF00012884FF0E022C9B29469136913F4803FC1
:10AB00000D4B1EBF0120C3F8A00794691868D3F845
:10AB1000A02781F3118899684FF47A73024403FBEC
:10AB200001F0001B5DF8044BB0FBF1F003FB0200E9
:10AB3000704700BF00ED00E0981C0020F8B5027DD2
:10AB400004681F2A07D96168A2F120052023AB40C1
:10AB50000B4205D1F8BD2168202393400B42F9D068
:10AB60003B4DC6693B4995F86CC94968C5F8FC1A64
:10AB70008C2303FB0653D3F81005D3F88815076818
:10AB8000BCF1000F4DD1B3F814050B6823F001039D
:10AB90000B60BB899BB223EA0003BB810B68DB0718
:10ABA000FCD41F2A49D9203A2023934043F01D03A7
:10ABB000E3602B78002BCDD00B6823F0D0030B6023
:10ABC0008C2303FB0653012283F85C25D5F8043B54
:10ABD000002B38D03B8820498C2202FB06F69BB222
:10ABE00043F080034FF0FF3231442E443B8038461F
:10ABF000FA625EF0B5FED6F88835D6F81015162242
:10AC00005A601A68096842F001021A608889B6F829
:10AC10001435104A03439BB28B815368C5F8003B3F
:10AC2000F8BD0069036823F001030360BB8923F4C6
:10AC300080731B041B0CBB81B0E72023934043F0BF
:10AC40001D03A360B5E7FFF72DFFC5F8040BC1E7AF
:10AC500004000010001000E0800500102DE9F84FFE
:10AC6000FFF720FFDFF8B080DFF8B0B0D8F8007948
:10AC7000DBF80440264E05464FF00009002C43DD6A
:10AC800000231A460BEB0321013391F8F9109C4283
:10AC900042EA0102F6D142EA09095FFA89FA9146CD
:10ACA0007368C3F308036BB9EFF3118353B9FDF76E
:10ACB000A7F9401B87420ADBB9F1000FDED15046ED
:10ACC000BDE8F88FFFF7C6FE401B8742F4DA002C80
:10ACD0000EDD1049002301200BEB0322013392F813
:10ACE000F9200AB181F8F2009C4201F58071F3D19C
:10ACF00098F80439542BE2D1B8F80C390133A8F88C
:10AD00000C395046BDE8F88FCA464FF00009C7E736
:10AD100000ED00E00C000010981C00200400001062
:10AD20002DE9F04FAA4D2B7887B01BB9012007B051
:10AD3000BDE8F08FA74BA8491A68A84BA1FB0212E7
:10AD40005209A3FB0213DB0803EB8303A2EB4303CB
:10AD500095F8302A029205F60834DAB2059204EB2F
:10AD6000830705F6E85905F5816B4FF0000A029B51
:10AD70009A4564D0DBF8183093F8F220002A51D1BC
:10AD8000D3F8E820DBF80410D3F8EC8003920191AB
:10AD9000FFF788FE01998F4B039A93F804E993F823
:10ADA00018C90490890001F1085101EB421108F122
:10ADB0008060393801EB8C13BEF1540F01EB801029
:10ADC0001E4603D1834BA3F80EC93346984218D9C7
:10ADD0001A68002A48D01A6C002A00F08881D3F83B
:10ADE0008020002A00F08681D3F8C02003F580730C
:10ADF000002AEBD11E46711AB04233464FEAA11227
:10AE00003AD8BCF1000F04D0724B0CF1FF3C83F830
:10AE100018C9BEF1540F05D16E4AB2F80A39013390
:10AE2000A2F80A390AF1010ABAF1080F04F15C0428
:10AE300007F15C0709F114090BF1200B97D16A683F
:10AE40000123002A85F8EC3E7FF770AF644B0021A8
:10AE500003EB022283F8F21003F580739342F9D1D9
:10AE6000012007B0BDE8F08F40331E46711AB04292
:10AE700033464FEAA112C4D9A8EB020145294FF08D
:10AE8000000828BF45214046019406EB8111444645
:10AE90009446F04603960DE01A6C002A40F0DC80E0
:10AEA000D3F88020002A40F00681D3F8C02003F5B3
:10AEB00080732AB9994206D91A68002AECD0403327
:10AEC000994200F2CD80C646A046B8F1110F019C10
:10AED00062469ED9D8F115019BD4424B1E46D3F849
:10AEE000F8319C4538BF3346049E38BFC3F8F8217B
:10AEF000384BD3F81C39F21A002A1BDB03F5F42374
:10AF000003F590739E4288BF3346324A88BF0533AB
:10AF1000C2F81C39334B2F4AD3F8F831052B86BFC2
:10AF2000053BDBB2002382F818392E4A4FF0FF337D
:10AF3000C2F8F83141B1C8F11408012300FA01F157
:10AF400003FA08F343EA0100274AC0F3C43302EBD3
:10AF500083031646D3F8BC1D00F01F0302EB8303E6
:10AF6000D3F8BC2D42EA0132C0F3441106EB810153
:10AF7000C0F3842306EB8303D1F8BC1DD3F8BC3D9A
:10AF800042EA011141EA032181EA112383EA131302
:10AF900003F00F02D5F8F03D0F2A03F1010325D18C
:10AFA000B1F5803F22D2BEF1540F4FEA111105D105
:10AFB0000848B0F808290132A0F80829B1F5606FF7
:10AFC000C5F8F03D00F09F80A9F80C1020E000BF0C
:10AFD00004000010981C00201F85EB51CDCCCCCC78
:10AFE0000C00001088010020D06E0708BEF1540F3D
:10AFF00005D14D49B1F808290132A1F80829C5F851
:10B00000F03DD5F8EC3D0133C5F8EC3D4FF6FF714E
:10B0100094F85830059883420CD0BA6823689B1A7C
:10B0200023603A6B63689B1A63600023BB603B63D9
:10B0300084F85800236801332360BB680133BB6088
:10B040004FF6FF7399427FF4EDAE6368013363609E
:10B050003B6B01333B63E5E6803399427FF633AFC8
:10B06000039AA3EB020E4FEAAE1E304A0EF1010E18
:10B0700082FB0E62A2EBEE72012AB8BF012200FA37
:10B0800002FE14440120013A904040EA0E009E4620
:10B09000DEF800208AB1DEF8402072B3DEF88020AE
:10B0A00072B3DEF8C0200EF5807E42B17145EFD854
:10B0B00003937346FEE6C03302E70EF1400E71457E
:10B0C000F6D9AEEB0303194A9B11013382FB0362ED
:10B0D000A2EBE373012BB8BF012398401C4401226B
:10B0E000013B9A407346039310437346E2E6803374
:10B0F0001E46BBE6C0331E46B8E60EF1800EDEE704
:10B100000EF1C00EDBE7084A92F89A3003EB4303D6
:10B1100002EBC303534493F8A9300D2B7FF454AFD3
:10B12000802389F81E3073E7981C0020565555552A
:10B130002DE9F041234B93F8992093F89A309A42E5
:10B1400039D1DFF88880D8F80460002E11DD44463C
:10B15000002514F8087B17B1237E012B1DD022692E
:10B160001368013543F00103AE4204F580741360A7
:10B17000F1D1FFF797FCD8F8F04E002C0BDD124A06
:10B1800002EBC404116893888889083203439BB298
:10B19000A2428B81F6D1BDE8F0810023204684F8DD
:10B1A000F030FDF70FFB0028D9D10135AE4204F590
:10B1B0008074D1D1DDE767F06FFC0028C1D1BDE814
:10B1C000F08100BF981C0020F80E00100400001051
:10B1D000454B5B68C3F308032DE9F0430546002B9C
:10B1E0005ED1EFF31183002B5AD1404B4FF0E02496
:10B1F0001A68A06919688A42FAD159688842F7D852
:10B200009E684FF47A7101FB06F4241AB4FBF6F43D
:10B2100001FB0244344E10274FF0E02C4FF47A7EAD
:10B220004FF001087268C2F30802CAB9EFF3118245
:10B23000B2B91A68DCF8180019688A42F9D159685D
:10B240008842F6D8D3F808900EFB09F1091AB1FB31
:10B25000F9F10EFB0212121BAA42E3D3BDE8F08300
:10B26000EFF3118287F31288DCF81800DCF8101075
:10B27000C90344BFC3F8A087DCF81800D3F80090D6
:10B28000D3F8A017D2B282F311884944D3F80890BA
:10B290000EFB09F2121AB2FBF9F20EFB0122DAE7F9
:10B2A000EFF31181102383F312884FF0E022C9B22B
:10B2B0009669136913F4803F0C4B1EBF0120C3F83D
:10B2C000A00796691868D3F8A02781F31188024473
:10B2D00098684FF47A7101FB00F4A41BB4FBF0F4FE
:10B2E00001FB024496E700BF00ED00E0981C00203F
:10B2F0002DE9F0473A4B3B4D471E10264FF0E0201A
:10B300004FF47A7C4FF001086A68C2F30802002A01
:10B3100052D1EFF31182002A4ED11A68846919685C
:10B320008A42FAD159688C42F7D899680CFB01FE21
:10B33000AEEB040EBEFBF1FE0CFB02EE6A68C2F33C
:10B340000802E2B9EFF31182CAB91A688469196870
:10B350008A42FAD159688C42F7D8D3F808900CFB8E
:10B3600009F1091BB1FBF9F10CFB0212A2EB0E0271
:10B37000B2F57A7FE2D3013FC6D2BDE8F087EFF3A2
:10B38000118286F3128884690169C90344BFC3F836
:10B39000A0878469D3F800A0D3F8A017D2B282F3B3
:10B3A0001188D3F8089051440CFB09F2121BB2FB30
:10B3B000F9F20CFB0122D9E7EFF3118186F3128831
:10B3C00084690269D20344BFC3F8A0878469D3F8B3
:10B3D00000E0D3F8A027C9B281F311887244A4E732
:10B3E000981C002000ED00E030B50C4683B0054607
:10B3F000D8B1036803F13F4303F57E039B0A0C4A6F
:10B40000134493F8A40463F0A1F8C4F34112C4F305
:10B410000013CDE90032C4F38103A988286804F041
:10B42000030265F063FF03B030BD4FF0FF33E6E782
:10B43000D06E070800B1D7E7704700BF70B50E4C5B
:10B4400094F8306AB6B104F58164002504E0013552
:10B45000B54204F120040DD0237F002BF7D0E06823
:10B460000028F4D0217D0135FFF7BEFFB54204F17D
:10B470002004F1D1012070BD04000010F0B50024BB
:10B4800087B0CDE90144CDE903440DF1040CC0E9D6
:10B490003F44C0E94144C0F80C41054600F5887EB0
:10B4A000BCE80F00AEE80F00CEF8004095F8293157
:10B4B000234E0594C5F854610BB907B0F0BD1E09C1
:10B4C000013E052E03F00F032DD81E4F07EB460259
:10B4D000B2F8F40340FA03F2D20724D5012202FAAB
:10B4E00003F3013B184037446BF0A8FC97F83C3E4F
:10B4F000154A2946154D034405EBC3052620E8806F
:10B50000234641F80C2F2846224665F061FE10497B
:10B51000AA880868B2FA82F24FF00043D34003438E
:10B520000B6007B0F0BD2946074B41F80C3F0023E4
:10B530001A46184607B0BDE8F04065F049BE00BFA6
:10B540003B43413BD06E0708E5B700089C1D002037
:10B55000003C014038B50409013C052C1AD80F4DB8
:10B5600005EB440200F00F03B2F8F40340FA03F2D3
:10B5700012F0010210D0012202FA03F3013B18403D
:10B5800025446BF05BFC95F83C3E054A034402EB16
:10B59000C30038BD002038BD104638BDD06E070846
:10B5A0009C1D002008B519F043FE052807D8054B5F
:10B5B000D3F820390344187BBDE80840CAE70020CF
:10B5C00008BD00BF981C002008B51D20FFF7C2FF72
:10B5D00010B190F9063053B11E20FFF7BBFF10B138
:10B5E00090F9063003B108BD5523C38008BD55232B
:10B5F000C380F1E708B55EF0DFFA1B20FFF7AAFF72
:10B6000008B12923C3801C20FFF7A4FF08B1292318
:10B61000C3800A4B93F82929012A01D0012008BDD3
:10B620000748C3F8300900F120014C3065F0B8FE3E
:10B63000044B002083F8230008BD00BF981C0020A5
:10B640008403002000ED00E043680B4A23F04073C0
:10B6500023F4807343F48073436083681A4042F09C
:10B6600002028260C36A0139C9B223F4700343EA5B
:10B670000153C362704700BFFDF7FFC0704700BFB2
:10B680000020FCF7EBBC00BF0120FCF7E7BC00BFCB
:10B690000220FCF7E3BC00BF10B1036882881A8364
:10B6A000704700BF30B1036882881B691A4214BF1B
:10B6B00001200020704700BF10B1036882885A83C0
:10B6C000704700BFF0B5056890F888606B688488A3
:10B6D000012285F824201A8822F040021204120C5C
:10B6E0001A802A89A24255D1017BAA7A8A420BD0BC
:10B6F0001A8822F003021204120C1A801A8892B2DD
:10B70000002944D01A80A9721A882F7B92B242F085
:10B7100040021A802B6A9A6892B34FF0000C2F4CAB
:10B720001433E64653F8101C964401EA040221B192
:10B73000B2F1805F27D06A692AB353F8142C14330E
:10B7400002EA040112B1B1F1805F1CD053F80C2C55
:10B750000CF1010C002AE5D1AFB1A6B1BCF1010F8B
:10B760000AD8BEF1070F07D80CEB8C0C4FEA8C02FD
:10B770002B6A13441B7B33B9BDE8F04059F0F8BE87
:10B780000FB1002EF4D1BDE8F0405AF073B942F089
:10B790000302B7E71A88124922F0380212048B42DA
:10B7A0004FEA124217D001F580618B4213D0214637
:10B7B000B1F5807FA8BF4FF480710229B8BF022184
:10B7C00091FAA1F1B1FA81F1013942EAC10292B2D2
:10B7D0001A802C8188E76108EAE700BF0000FFFFBC
:10B7E0000038004038B52C4AD0F8E8305268D0F81C
:10B7F000E010044673B1501A83420BDC94F8D83041
:10B80000C4F8E020012B10D0D4F8DC300133C4F8A8
:10B81000DC3038BDD4F8EC30C4F8E0200B44C4F878
:10B82000E43094F8D830012BEED16168201D04F18A
:10B83000F005EFF3118C102383F3128863681B6A01
:10B840000BB3D4F8F8302A461BB1D3691432002B5D
:10B85000FBD10B6A6BB1996839B9934209D0196869
:10B8600029B15B6899680029F7D01433F3E7C3E97D
:10B8700000055FFA8CFC8CF31188D4F8DC300133BE
:10B88000C4F8DC3038BD0D625FFA8CFC8CF3118893
:10B89000FFF718FFB8E700BF001000E02DE9F04106
:10B8A000826992F8E430012B8AB005465BD0023BF6
:10B8B000012B54D892F85431D2F89C203B4C63F0C1
:10B8C0007F0313708769D7F8A030D7F8108003F191
:10B8D000010E0FCCEC46ACE80F00D7F89C30CDE958
:10B8E000003E0FCCACE80F0094E8030007F110060F
:10B8F0008CE80300EFF31180102383F312883B6977
:10B900001B6A002B49D0029B6A461BB1D3691432D3
:10B91000002BFBD1D8F8203073B1996839B9934224
:10B920000AD0196829B15B6899680029F7D01433E7
:10B93000F3E71E60C3F804D0C0B280F31188A96990
:10B940000A69136A002BFCD1D1F8A0305A8852BA88
:10B95000EA819A8852BA2A82DB885BBA6B8201201C
:10B960000AB0BDE8F08192F8570192F85431D2F84C
:10B97000A0101B1A5B100133DBB201EB430231F85C
:10B9800013305BBAEB8153885BBA2B82938801201A
:10B990005BBA6B820AB0BDE8F081C8F820D0C0B2B3
:10B9A00080F311883046FFF78DFEC8E7147D070845
:10B9B0002DE9F04190F8E430D0F8A050012B8AB086
:10B9C000044673D041D9023B012B6BD890F8553116
:10B9D000D0F89C206A4E63F07F031370D0F8A0303B
:10B9E000D0F8108003F1010E00F110070FCEEC46E5
:10B9F000ACE80F00D4F89C30CDE9003E0FCEACE8A7
:10BA00000F0096E803008CE80300EFF31180102389
:10BA100083F3128823691B6A002B00F0A880029B25
:10BA20006A461BB1D3691432002BFBD1D8F8203001
:10BA30002BB3996839B9934221D01968E1B15B6899
:10BA400099680029F7D01433F3E7D0F89C304FF011
:10BA5000FF321A605A609A60DA60D0F8E830052246
:10BA6000B3F57A7FC0F8F82054D8032380F8E43087
:10BA700001200AB0BDE8F0811F60C3F804D0C0B255
:10BA800080F311882269136A002BFCD16B885BBAA2
:10BA9000A4F8D030AB885BBAA4F8D230EB885BBA9C
:10BAA000A4F8D43001200AB0BDE8F08190F8571115
:10BAB00090F8553190F85621D0ED366AD0ED377AAE
:10BAC0005B1A5B100133DBB2521A35F8131005EB29
:10BAD000430349BAA0F8D010598849BAA0F8D21047
:10BAE0009B8852100132D2B25BBAA0F8D43035F83C
:10BAF0001230DBBA07EE103AB8EEC77AE7EE267AD4
:10BB0000FDEEE77A17EE903AA0F8D63001200AB0A1
:10BB1000BDE8F08103691A7B2AB35B691BB390F817
:10BB2000983003B390F85731D0F89C20C4F8A400A3
:10BB300063F07F03137090F8571190F85531D0F8E7
:10BB4000A0201048C4F80C015B1A07330121C4F887
:10BB50000431D4F89C3084F808110A44C4E93F3217
:10BB600084F8E4109EE7022384F8E4309AE7C8F8EA
:10BB700020D0C0B280F311883846FFF7A3FD81E7DB
:10BB8000147D070839800008D3B2012B1DD8104B53
:10BB900002EB420210B54FEA820E0EF1080403F5E3
:10BBA000137C02E01C3363450DD01A788242F9D130
:10BBB0005A788A42F6D11A59002AF3D00EF1040EAF
:10BBC00003EB0E0010BD002010BD0020704700BF29
:10BBD0003C7D070810B40C4C002304F6341C01E033
:10BBE000152B0CD003EB430201331CF802108142E9
:10BBF000F6D1144494F936095DF8044B70474FF0C0
:10BC0000FF305DF8044B7047981C0020D3B2022B24
:10BC100022D870B502EB4202104C4FEA820E234646
:10BC20000EF10C05002204E00132172A03F12C0367
:10BC300010D01E68B042F7D193F804C08C45F3D100
:10BC40005E59002EF0D02C210EF1080301FB0233C7
:10BC5000E01870BD002070BD00207047D06E07084E
:10BC6000002839D030B51D4D90F804C0002305F6EA
:10BC7000341401E0152B2DD003EB43020133A15CFA
:10BC80006145F7D11544046895F9363990F805E017
:10BC9000DAB2022A1ED803EB430311484FEA830CA1
:10BCA0000CF10C050346002204E00132172A03F1CF
:10BCB0002C030FD019688C42F7D119797145F4D152
:10BCC00059590029F1D02C210CF1080301FB023352
:10BCD000184430BD002030BD704700BF981C0020C4
:10BCE000D06E07080348D0F8743213B100F519700C
:10BCF00018477047880100200348D0F8A03213B1DC
:10BD000000F5247018477047880100200348D0F8D8
:10BD1000CC3213B100F52F7018477047880100200E
:10BD20000348D0F8F83213B100F53A70184770475D
:10BD3000880100200348D0F8243313B100F5457082
:10BD400018477047880100200348D0F8503313B1DA
:10BD500000F5507018477047880100200348D0F85C
:10BD60007C3313B100F55B701847704788010020E1
:10BD70000348D0F8A83313B100F566701847704730
:10BD8000880100200348D0F8D43313B100F5717056
:10BD900018477047880100200348D0F8003413B1D9
:10BDA00000F57C7018477047880100200348D0F8E0
:10BDB0002C3413B100F21C40184770478801002052
:10BDC0000348D0F8583413B100F58960184770471C
:10BDD000880100200348D0F8843413B100F2744085
:10BDE00018477047880100200348D0F8B03413B1D9
:10BDF00000F5946018477047880100200348D0F888
:10BE0000DC3413B100F2CC401847704788010020A1
:10BE10000348D0F8083513B100F59F601847704704
:10BE200088010020094B01382C2202FB0033084A0C
:10BE3000D3F864320748116B834214BF4FF4800378
:10BE40004FF400130B431363704700BF88010020B9
:10BE5000003802400060024070B53E4C3E4D013853
:10BE60004FF02C0C0CFB004C9646DCF864623B4A0D
:10BE7000AE4214BF4FF480054FF40015166B3543E6
:10BE80001563CCF8803202F52052DCF86832CCF829
:10BE90007412103293423ED002F5806293423AD03F
:10BEA000A2F57A72934248D002F58062934244D060
:10BEB000A2F57A72934242D002F5806293423ED05C
:10BEC000A2F57A72934236D002F58062934232D064
:10BED000A2F57A72934234D002F58062934230D058
:10BEE000A2F57A7293422ED002F5806293422AD054
:10BEF000A2F57A72934228D002F58062934224D050
:10BF0000A2F57A72934222D0154D02F580629342D7
:10BF100018BF002500E0134D2C2303FB0044CEF393
:10BF2000011294F87C02C4F88852CEF38711BDE860
:10BF3000704065F029B90C4DEEE70C4DECE70C4D67
:10BF4000EAE70C4DE8E70C4DE6E70C4DE4E7044D5D
:10BF5000E2E700BF88010020006002400038024094
:10BF60000080002820800010008000180088001049
:10BF700000802010208000200088002000802020E9
:10BF80002DE9F04F934A92F88539012B85B021D0E5
:10BF9000022B15D0002300938F4F4FF0000807F1BC
:10BFA000780A3B78022B17D008F10108B8F1030F8B
:10BFB00007F128070AF1050AF3D105B0BDE8F08FB3
:10BFC00092F87A3933B192F87639083B18BF0123D9
:10BFD0000093E1E70093DFE79AF903307F4D029782
:10BFE000591C15BFDBB200239B464FF0010B1E46C8
:10BFF000DAB2012A00F2DB8006EB46018900730009
:10C00000774C019308315FFA88F703E01C34AC42A7
:10C0100000F0CD802378002BF8D16378BB42F5D1B6
:10C0200060580028F2D012F029F8009B814623B115
:10C03000A0F10901072940F2BF807A1CD2B2142175
:10C04000484612F005F8002800F0B180DDE901371C
:10C05000334404EB830409F1FF33E068614C594237
:10C060004FF02C0203FB02F201F0070103F007037B
:10C0700058BF4B42A11804F519742244C1F870024C
:10C080003A61484681F86C32FFF7CCFE9AF90430E9
:10C090005A1C00F09A80DEB23246CDE902794F4D4B
:10C0A000F3B29346012B62D806EB46018900730078
:10C0B0004B4C019308315FFA88F902E01C34AC4222
:10C0C00055D02378012BF9D163784B45F6D16058D0
:10C0D0000028F3D011F0D2FF009B07461BB1A0F15E
:10C0E0000901072947D909F10102D2B213213846C3
:10C0F00011F0AEFF00283AD0BB46DDE901273244FB
:10C1000004EB82040BF1FF325142E068354CDDF85C
:10C110000C904FF02C0502FB05F501F0070102F031
:10C12000070258BF4A42611904F519742544C1F841
:10C1300070027D61584681F86C22FFF773FEB9F1F9
:10C14000000F3DD0BBF1000F1BD02846FCF7A4F92F
:10C150003869FCF7A1F93846FCF76EF900231A4656
:10C1600021495846FFF778FE01233B731CE701364F
:10C17000F3B29B4596D2DDE90279B9F1000F1FD0E9
:10C180001A4C09F1FF332C2202FB034000243861D2
:10C190007C61FCF781F93846FCF74EF923461449D7
:10C1A00022464846FFF758FE01233B73FCE6013662
:10C1B000F2B29345BFF41DAF029F4FF0000965E74F
:10C1C00000220023C7E90423EEE601231A460026D5
:10C1D00063E700BF981C002038260020887F0708EE
:10C1E0003C7D070888010020A19E0008EC03002088
:10C1F000199F00080C4A0D4903469342D1F80001EB
:10C2000010D0A2F5806293420CD002F58042934296
:10C2100008D002F58062934204D002F58062934216
:10C2200018BF4008704700BF00040140981C002060
:10C23000064A136851690B4003F00103536123B1AF
:10C24000034BD3F8A407036818477047003C01402C
:10C25000981C0020064A136851690B4003F0020342
:10C26000536123B1034BD3F8A807036818477047FD
:10C27000003C0140981C0020064A136851690B409D
:10C2800003F00403536123B1034BD3F8AC070368F5
:10C2900018477047003C0140981C0020064A13686C
:10C2A00051690B4003F00803536123B1034BD3F8EA
:10C2B000B007036818477047003C0140981C0020F5
:10C2C000064A136851690B4003F01003536123B110
:10C2D000034BD3F8B407036818477047003C01408C
:10C2E000981C0020F8B50C4B1D685A69154005F4E0
:10C2F00078755D617DB1094F0126B5FA85F4C4F109
:10C300001F0407EB840306FA04F4D3F8A4070368B8
:10C310009847A543F1D1F8BD003C0140981C00208E
:10C32000F8B50C4B1D685A69154005F47C455D61F4
:10C330007DB1094F0126B5FA85F4C4F11F0407EB5E
:10C34000840306FA04F4D3F8A40703689847A543C6
:10C35000F1D1F8BD003C0140981C0020F0B5054625
:10C3600083B0A0B307681D4B144607F13F4202F5A6
:10C370007E0203EB92230E4693F8A40462F0E6F8E3
:10C38000A988B1FA81F3C3F11F03C3F3CC0207EB11
:10C39000820203F00703156A4FF00F0C9B009C40CC
:10C3A0000CFA03F325EA03031362136A1C431462B5
:10C3B000C6F30013C6F34112CDE900323846C6F386
:10C3C000810306F0030264F091FF03B0F0BD034B5C
:10C3D00093F8A30462F0BAF82B68FFDED06E07086A
:10C3E00000B1BBE7704700BF2DE9F047684E06EB90
:10C3F0000013D3F8284A002C76D093F8307A0546FB
:10C400004FEA0018384662F0A1F807F01F027F09D2
:10C410000123032F03FA02F372D0042F6BD0022FF3
:10C4200064D006EB0803013593F82C0AFFF792F865
:10C43000EDB2824610B11223C571837106EB080379
:10C4400093F82D0AFFF786F8814610B11323C571C2
:10C45000837106EB080393F82E0AFFF77BF8074673
:10C4600010B11423C571837106EB0803504693F88D
:10C470002F5A4A212A46FFF7B3FF2A4648462A2167
:10C48000FFF7AEFF2A460A213846FFF7A9FF414BC6
:10C490009C423AD0404B9C4242D0404B9C424AD0B6
:10C4A0003F4B9C4252D03F4B9C425AD03E4B9C4209
:10C4B00062D0A38823F003031B041B0CA3802388F2
:10C4C00003F4415343F4457343F003032380A38BE8
:10C4D00023F400631B041B0C0722A38322822388FE
:10C4E0009BB243F040032380BDE8F0872F4A516A96
:10C4F0000B43536295E72D4A11690B43136190E793
:10C500002A4A116A0B4313628BE703F584335A6A94
:10C5100042F480525A625A6A22F480525A62C8E740
:10C5200003F500331A6A42F480421A621A6A22F44E
:10C5300080421A62BDE703F5FE331A6A42F40042F4
:10C540001A621A6A22F400421A62B2E703F58233D1
:10C550005A6A42F400525A625A6A22F400525A62EB
:10C56000A7E703F568435A6A42F480125A625A6A8E
:10C5700022F480125A629CE703F564435A6A42F43B
:10C5800000125A625A6A22F400125A6291E700BFFE
:10C59000981C00200030014000380040003C004062
:10C5A0000034014000500140005401400038024076
:10C5B000431C00F069812DE9F04F2C23DFF8C0B453
:10C5C00000FB03F30BEB030285B0D2F80CA0064688
:10C5D000BAF1000F07D0D2E90549002C00F01E8106
:10C5E00094F9062012B105B0BDE8F08FB9F1000F43
:10C5F00000F0748199F90620002AF4D118330BF168
:10C600000C05E818DAF80480EA50711CC0E9012230
:10C61000C0E903221523A371C9B21623E17189F879
:10C62000071089F806309AF8280061F08FFFB8F8F3
:10C6300004302268A08823F440731B041B0CA8F864
:10C640000430D9F800301083B9F804201A8311217E
:10C650002046FEF7C9FE11214846FEF7C5FE092710
:10C66000332524B908E1013D08D0FEF7B1FD236868
:10C67000A28819690A424FF00A00F4D05A830520B3
:10C68000FEF7A6FD2368A2881A830520FEF7A0FD09
:10C69000013FE5D1002C00F04581332503E0013D49
:10C6A00008D0FEF795FD2368A28819690A424FF069
:10C6B0000A00F4D05A830520FEF78AFDB9F1000F75
:10C6C00000F05C81D9F80030B9F804205A830520C5
:10C6D000FEF77EFD2368A2881A830520FEF778FD09
:10C6E000D9F80030B9F804201A830520FEF770FD50
:10C6F0002368A2881B691A4240F0C7802C2303FBE1
:10C7000006B3997F1A7F002940F0CA802046122183
:10C71000FFF724FE12212C2303FB06B35A7F484661
:10C72000FFF71CFED04B984500F04581CF4B984554
:10C7300000F04C81CE4B984500F05981B8F8043098
:10C7400023F440731B041B0CA8F80430B8F8003025
:10C750002C2202FB06B29BB243F00103148CA8F812
:10C760000030B8F804504FF47A73684603FB04F4C1
:10C7700025F03F055CF018FF0299BE4B2D04A3FB8A
:10C7800001232D0C45EA9345A8F80450B8F8002081
:10C7900022F001021204120CA8F80020B64A980CEC
:10C7A0009442034600F382806200B1FBF2F292B23F
:10C7B0000133042A38BF0422A8F82030A8F81C202E
:10C7C000B8F800309BB243F00103A8F80030B8F885
:10C7D000003023F4816323F002031B041B0C4FF48D
:10C7E000804143F48063A8F80030A8F80810B8F836
:10C7F000003023F080031B041B0C0022A8F800303B
:10C800009AF82A00114664F0BFFC00229AF8290029
:10C81000114605B0BDE8F04F64F0B6BCB9F1000FA9
:10C8200000F0FA8099F90620002A7FF4DCAE183374
:10C830000BF10C01CA18DAF80480CC50C2E90144AB
:10C84000C2E90344162389F80630731C89F80730BF
:10C850009AF8280061F07AFEB8F80430B9F804209C
:10C8600023F440731B041B0CA8F80430D9F80030E3
:10C870001A83F0E6FEF7ACFC013D4FF00A00F9D157
:10C880000520FEF7A5FC00E770472C23D9F800200F
:10C8900003FB06B312699A7F002A00F0A2801A7F78
:10C8A00032212046FFF75AFD322134E704EB4404DD
:10C8B000B1FBF4F18AB2C1F30B0109B942F00102F4
:10C8C0006E494FF4967300FB03F3A1FB03139B091E
:10C8D000013342F40042A8F820306FE70BF10C015D
:10C8E0001833CA18DAF8048041F80390C2E90199B4
:10C8F000C2E903991523A371431CE3719AF8280038
:10C9000061F024FEB8F80430A28823F440731B04BD
:10C910001B0CA8F80430236811211A832046FEF767
:10C9200063FD9CE6332401E0FEF752FC013C4FF02E
:10C930000A00F9D10520FEF74BFCB9F1000F61D0D8
:10C94000D9F80030B9F804205A830520FEF740FCDE
:10C950000520FEF73DFCD9F80030B9F804201A8311
:10C960000520FEF735FC2C2303FB06B39A7F002A33
:10C9700018BF32215A7F08BF1221D0E60520FEF7EA
:10C9800027FC2368A2881A830520FEF721FC0520D6
:10C99000FEF71EFC2368A2881B691A4255D12C237E
:10C9A00003FB06B3997F1A7F00296BD02046322102
:10C9B000FFF7D4FCB6E603F5F2331A6A42F400122C
:10C9C0001A621A6A22F400121A62B7E603F5F0330B
:10C9D0001A6A42F480021A621A6A22F480021A6207
:10C9E000ACE61A7F20461221FFF7B8FC92E603F569
:10C9F000EE331A6A42F400021A621A6A22F4000242
:10CA00001A629BE60520FEF7E3FB0520FEF7E0FB3C
:10CA10000520FEF7DDFB85E618330BF10C01CA1883
:10CA2000DAF8048041F80390C2E90199C2E9039958
:10CA30009AF8280061F08AFDB8F8043023F44073B6
:10CA40001B041B0CA8F8043009E62C2303FB06B3D7
:10CA500020469A7F002A18BF32211A7F08BF122170
:10CA6000FFF77CFC5EE600BF005400400058004029
:10CA7000005C004083DE1B43A0860100D34D6210A2
:10CA8000981C002020461221FFF768FC4AE600BFF0
:10CA90002DE9F0410646FDF7DDFF114F2C24054638
:10CAA00004FB067442F20F7804E0FDF7D3FF401B4D
:10CAB000404509DC94F82530002BF6D194F8240089
:10CAC00080F00100BDE8F081B7F8583A01333046F4
:10CAD0009BB2A7F8583AFFF76BFD0020BDE8F08144
:10CAE000981C002010B582B004468DF807300DF177
:10CAF000070361F0BBFC08B902B010BD2046FFF788
:10CB0000C7FF02B010BD00BFB0F1FF3F6AD02DE9F2
:10CB1000F04F022883B0044613DC334F2C2600FB71
:10CB200006F69946BB19D3F810B0BBF1000F08D038
:10CB30000D4693F825100193924601F0FF020092F2
:10CB400019B1002003B0BDE8F08FFDF783FF6D0041
:10CB5000019B0C99009A2036EDB2804607F10C003B
:10CB600083F8265085194FF0010C83F827A083F82D
:10CB7000292083F82AC08151696083F8289083F8BE
:10CB800025C083F82420BBF8043099051ED4BBF8D7
:10CB90000030DA0513D442F20F7505E0FDF75AFFB5
:10CBA000A0EB0803AB4213DCBBF800309B05F5D4C7
:10CBB000BBF800309BB243F48073ABF80030BBF895
:10CBC00004309BB243F44073ABF804300120B9E762
:10CBD000B7F8583A01339BB22046A7F8583AFFF706
:10CBE000E7FCAEE700207047981C002050B5274EA8
:10CBF0002C2303FB006385B0DA685468A28A92B2E2
:10CC00000392039A12F4706F1CBF012283F8242050
:10CC1000039B13F4E06F0DD1A38A2C2223F47063DD
:10CC200002FB00661B041B0C0022A38286F8252051
:10CC300005B050BD238BA38823F480631B041B0C19
:10CC4000A380039B9A05E7D423889B05E4D423881B
:10CC5000D9050FD52388DA05FCD423889BB243F489
:10CC60000073238023889B05FCD40190FFF7A0FC70
:10CC70000198D1E723889BB243F400732380A388F3
:10CC800023F440731B041B0CA380C5E7981C0020F1
:10CC90000020ABE70120A9E70220A7E770B590F8D4
:10CCA00071301D09013D052D044611D81C4E06EBBF
:10CCB000450203F00F03B2F8F41341FA03F2D2076E
:10CCC00006D590F87220012AD0B205D0012070BD9F
:10CCD00094F872300120FAE7984001382E44084059
:10CCE0006AF0ACF896F83C3E0E4A034402EBC305EA
:10CCF00052F83320AB8810691840E8D0E36E002268
:10CD000084F8722093F8212002212846FFF726FBA1
:10CD1000226E93899BB243F008039381D6E700BF4C
:10CD2000D06E07089C1D0020F8B50E4C94F8307AA0
:10CD30009FB104F5A164C7F109070925013D0ED093
:10CD4000A6683079FEF706FC217DF27908B1FFF77D
:10CD500005FBAF4204F18C04F0D10120F8BDAB68B3
:10CD6000FFDE00BF04000010094BD3F85C2AD3F8A3
:10CD7000601A40F22A40002350604B620B889BB23D
:10CD800043F001030B80136843F001031360704705
:10CD9000981C002010B41D4B1D48196C1D4A41F011
:10CDA0008051012485B0196404625321FF24CA20F4
:10CDB0005462506251625B6FDB0017D41648042343
:10CDC000002102910290029A1A440292029A0433BC
:10CDD0001C2B1160F5D103910390039B0393039BDC
:10CDE0000E4A1A6005B05DF8044B70470A4B0022EA
:10CDF00001920193019B0193019A084B12689A4298
:10CE0000DCD105B05DF8044B704700BF003802402C
:10CE100000000E4200280040502800403166654264
:10CE20002DE9F043046ED0F80890A38923F4005351
:10CE30001B0407461B0C91B0A38190F805803D7937
:10CE4000C8F3800005F001064FEA0822B30015F090
:10CE500002054FEA003002F4806218BF43F0080375
:10CE600002431A43238A4FEA08319BB223F440530A
:10CE700001F4005119432182A38923F4B05323F014
:10CE80000C031B041B0C1343A381A38A23F44073DC
:10CE90001B041B0CA38201A85CF086FB684B9C4220
:10CEA00005D003F580639C4201D0039B00E0049B06
:10CEB000A2896449A089120403EB83034CBF4FEAA3
:10CEC00049094FEA890903EB8303B3FBF9F3A1FB9B
:10CED00003C252094FF0640C00040CFB12334FEAFA
:10CEE000021200F193801B013233A1FB0313C3F341
:10CEF00043131A4392B2228197F93800FEF752FB8E
:10CF000030B10368828818F0010F14BF1A835A8366
:10CF100018F0080FA38A73D09BB243F00803A382D2
:10CF2000A3899BB243F40053A381002E2FD0FE6B44
:10CF3000002E78D00023CDE90833CDE90C33CDE9BC
:10CF40000E33049306937B6C0193FB6D0293FB6895
:10CF500005937B6903934FF480714FF48033CDE9DF
:10CF60000A1330464FF4806307935CF069FB01A914
:10CF700030465CF0FBFB336843F001033360A38A67
:10CF80009BB243F04003A38273689BB27B65002D84
:10CF900033D03E6C002E41D0BB6C0193BB6D02932D
:10CFA0003B690593402304934FF4803300253046BA
:10CFB0000B934FF480630793CDE90855CDE90C55E9
:10CFC000CDE90E55039506950A955CF039FB01A94C
:10CFD00030465CF0CBFB736943F0800373613368C8
:10CFE00043F0160333607560A38A9BB243F080035D
:10CFF000A382E36843F04003E36011B0BDE8F0832F
:10D0000023F008031B041B0CA38289E7DB003233E7
:10D01000A1FB0313C3F342131A436BE7E36843F026
:10D020008003E360E5E74FF6DF732380E36843F0B6
:10D030002003E360E36843F01003E360A7E700BF69
:10D04000001001401F85EB51EFF31183502282F352
:10D050001288016C0A68D20703D5DBB283F311880A
:10D0600070474A6892B230B4A2B9456A846AA54250
:10D070001FD0846A85692C44CC60456A846AA542C5
:10D0800011D8846A82620269121B002492B280F86D
:10D0900064404A600A6842F00102DBB20A6083F32E
:10D0A000118830BC7047426A846A121B446A8462E9
:10D0B000EBE7012280F86420DBB283F3118830BCF7
:10D0C000704700BF70B5037DC66902681F2B054617
:10D0D00040D95068203B2021994008422CD0D16093
:10D0E00010219940D1605168D940C80752D43046C8
:10D0F000FFF7AAFF96F86430C3B196F87230022B9E
:10D1000014D096F872308BB996F87100FEF722FAB7
:10D11000326E938923F008031B0401211B0C9381B9
:10D1200086F8721010B12021FEF75EF92B7D2A6877
:10D130001F2B194614D9203B5068082199400842FA
:10D1400000D0D1605068042101FA03F3184200D0E6
:10D15000D36070BD106820249C4020420DD1194638
:10D16000106808238B40184200D093601068042395
:10D170008B401842EDD0936070BD102199409460AF
:10D1800091601168D940C907B1D5012101FA03F3B3
:10D190009360ACE7012101FA03F3D360A7E700BF76
:10D1A000BFF34F8F0549064BCA6802F4E062134390
:10D1B000CB60BFF34F8F00BFFDE700BF00ED00E085
:10D1C0000400FA0508B5002103205CF051FB72B69B
:10D1D000FFF7E6FF154C08B5D4F8643A94F86A0AEC
:10D1E000ABB91420FEF784F800BFD4F8643A5BB101
:10D1F0001A689B88116994F86A2A0B4012B91BB10E
:10D20000FFF7E0FF002BFBD0FCF722FAECE71968F0
:10D210009A880B69134020B1002BE2D10B691340AF
:10D22000FAE7002BDDD00B691340FAE7981C0020C9
:10D2300008B572B6FFF7B4FF00B583B00D49002200
:10D2400000920091009B0C330093009B1B68012B04
:10D2500002D003B05DF804FB01920191019B0649E5
:10D260000C330193019B1A600B6883F308884B68A9
:10D270009847FEE7502800400000FF1F38B5FFF731
:10D2800089FDFFF7D9FF01205CF002FB6E4A93682D
:10D2900023F003039360936813F00C0FFBD1136822
:10D2A0006949A0B943F00103136041F2883302E0F9
:10D2B000013B00F0C7800A689507F9D5634C00224E
:10D2C0000823C4F86C2AC4F8703A02251EE043F41F
:10D2D0008033136041F2883302E0013B00F0B280FA
:10D2E0000A689403F9D5594C594B5A4DB0FBF5F5E2
:10D2F000B0FBF3F0B5EB400F18BF28464FF48003A6
:10D30000C4F86C3AC4F8700AB5FBF0F50220C4F812
:10D31000745A5CF0BDFA03280DD84F4B03EBC003E1
:10D320009988DA88C4F87C1A5B88C4F8802AB3FB31
:10D33000F5F3C4F8783A444B48491A6C42F08052ED
:10D340001A640A6842F440420A609A689A609A68CD
:10D3500042F400429A609A6842F4A0529A60D4F86B
:10D360006C1AD4F8702A0A43D4F8781A42EA811267
:10D37000D4F8801A42EA0162D4F87C1A49080139CB
:10D3800042EA01425A601A6842F080721A601A68D2
:10D390009201FCD5324A40F205711160996821F082
:10D3A00003019960996841F00201A2F580629960D9
:10D3B000936803F00C03082BFAD12A49D823B3FB56
:10D3C000F5F39B0143F000530120C2F884308866D6
:10D3D000FBF770FB244D1C4B244AEA60596F244A2A
:10D3E000C4F8841AAA605A6B224922F080025A6358
:10D3F0005A6F42F080725A671A6B42F4CE021A6377
:10D400005A6B5A639A6B9A631A6C0A431A64596C82
:10D41000194A0A435A64FCF789F9184AD4F80031CA
:10D42000A2FB03239B09013BB3F1807F09D24FF09C
:10D43000E022F02053610021072385F82300916149
:10D44000136138BD014CC5E700380240981C00202C
:10D4500080841E0040420F00887F07080070004053
:10D46000003C02400000474200ED00E00005FA05E4
:10D4700000000020FFC9FE36335F0700D34D621065
:10D4800030B50068154C164D85B00139002389B2BE
:10D49000A042ADF80C30ADF806308DF80E30029198
:10D4A000D5F800310FD00F4988420CD001F58041EA
:10D4B000884208D001F58061884204D001F580617E
:10D4C000884218BF5B08B3FBF2F301A9013BADF83A
:10D4D00004305CF0EDF905B030BD00BF0004014040
:10D4E000981C00200000014038B50446FFF7C8FF33
:10D4F0002168154D0A8892B242F00102002305F618
:10D5000034500A8050F83320914207D001330E2B5B
:10D51000F8D1BDE838400020FBF7CAB905EBC305D8
:10D5200095F8394D2046FBF7C3F91B2C06D02E2C5D
:10D5300009D1BDE838402C20FBF7BAB9BDE8384026
:10D540001920FBF7B5B938BDD06E070870B504686F
:10D55000A30AA3F58013522B50D8364D2B4493F8D1
:10D5600000C4BCF10D0F49D84379022023FA00F51D
:10D570000CEB8C03A8400CEB43031FFA80FE2B44FA
:10D58000002949D0A5892C48ADB200EB830645EAB5
:10D590000E05C6F80814C6F81824A581EFF3118605
:10D5A000502383F312882C2202FB0C03D3F80414BB
:10D5B00061B3C3F82814214B04310CEB8C02204DCD
:10D5C0000CEB4202920005EB020E1032134453F8AA
:10D5D000042F0AB10A60111D7345F8D10022F3B27D
:10D5E0000A6083F311882C2303FB0C00D0F8283445
:10D5F0002BB1A3899BB243F00103A38170BDA38922
:10D6000023F001031B041B0CA38170BD0B4B02FB19
:10D610000C3202F12401D0E7A08980B220EA0E008A
:10D62000A081054800EB8305C5F80814C5F8182447
:10D63000B4E700BFD06E0708981C00209C20002093
:10D64000BC20002001490248FCF72ABA9C20002097
:10D650000000014010B5064C064804F20441FCF7F6
:10D660001FFA04F5B2610448BDE81040FCF718BA8F
:10D67000981C0020000001400044014002494FF086
:10D680008040FCF70DBA00BFC820002001490248C5
:10D69000FCF706BAF42000200004004001490248CB
:10D6A000FCF7FEB920210020000800400149024893
:10D6B000FCF7F6B94C210020000C0040014902485B
:10D6C000FCF7EEB9D02100200004014010B5064C53
:10D6D000064804F5A761FCF7E3F904F21461044875
:10D6E000BDE81040FCF7DCB9981C002000040140A4
:10D6F000001C004001490248FCF7D2B9FC2100207F
:10D700000040014001490248FCF7CAB954220020F8
:10D710000048014001490248FCF7C2B980220020BC
:10D720000018004001490248FCF7BAB9D82200208D
:10D730000020004010B50C2935D8DFE801F0913405
:10D74000343463343434073434343500038C54882F
:10D75000B2F80CE023F480731B041B0C0384038CCD
:10D76000B0F804C0818B21F073014EEA040E090465
:10D77000148823F40073090C1B042143764C1B0C02
:10D7800043EA0E23A0421FFA8CFC9BB200F0948067
:10D7900004F58064A04200F08F809268A0F804C075
:10D7A0008183C263038410BD038C5488B2F80CE0FB
:10D7B00023F480531B041B0C0384038CB0F804C0B7
:10D7C000818B21F4E6414EEA040E0904148823F407
:10D7D0000053090C41EA04211B045F4C1B0C43EA73
:10D7E0000E33A0421FFA8CFC9BB289B27ED004F5A6
:10D7F0008064A0427AD09268A0F804C08183026459
:10D80000038410BD038C5488B2F80CE023F010039D
:10D810001B041B0C0384038CB0F804C0018B21F49F
:10D82000E6414EEA040E0904148823F02003090C93
:10D8300041EA04211B04484C1B0C43EA0E13A0428E
:10D840001FFA8CFC9BB289B26CD004F58064A042B4
:10D8500068D09268A0F804C001838263038410BD7D
:10D86000038C5488B2F80CE023F001031B041B0C5A
:10D870000384038CB0F804C0018B21F073014EEADD
:10D88000040E0904148823F00203090C1B0421432D
:10D89000314C1B0C43EA0E03A0421FFA8CFC9BB2D6
:10D8A0002CD004F58064A04228D09268A0F804C06F
:10D8B00001834263038410BDD489B2F810E023F4DD
:10D8C000006343EA0423548A2CF4405C4EEA040EBD
:10D8D0004CEA0E1C94884FF6FF3E03EA0E0E4EEA09
:10D8E000042E1FFA8CFC1FFA8EF356E7148A2CF4D0
:10D8F000804C4CEA841C1FFA8CFC7CE7D489B2F87B
:10D9000010E023F008032343548A2CF4407C4EEAB1
:10D91000040E948823F004034CEA0E0C1FFA8CFCCE
:10D920002343C2E7D489B2F810E023F0800343EA2E
:10D930000413548A2CF4406C4EEA040E4CEA8E0C0C
:10D9400094884FF6BF7E03EA0E0E4EEA041E1FFABD
